{
  "contractName": "Lottery",
  "abi": [
    {
      "inputs": [],
      "stateMutability": "nonpayable",
      "type": "constructor"
    },
    {
      "inputs": [],
      "name": "manager",
      "outputs": [
        {
          "internalType": "address",
          "name": "",
          "type": "address"
        }
      ],
      "stateMutability": "view",
      "type": "function",
      "constant": true
    },
    {
      "inputs": [
        {
          "internalType": "uint256",
          "name": "",
          "type": "uint256"
        }
      ],
      "name": "players",
      "outputs": [
        {
          "internalType": "address",
          "name": "",
          "type": "address"
        }
      ],
      "stateMutability": "view",
      "type": "function",
      "constant": true
    },
    {
      "inputs": [],
      "name": "enter",
      "outputs": [],
      "stateMutability": "payable",
      "type": "function",
      "payable": true
    },
    {
      "inputs": [],
      "name": "pickWinner",
      "outputs": [],
      "stateMutability": "nonpayable",
      "type": "function"
    },
    {
      "inputs": [],
      "name": "getPlayers",
      "outputs": [
        {
          "internalType": "address[]",
          "name": "",
          "type": "address[]"
        }
      ],
      "stateMutability": "view",
      "type": "function",
      "constant": true
    }
  ],
  "bytecode": "0x608060405234801561001057600080fd5b50336000806101000a81548173ffffffffffffffffffffffffffffffffffffffff021916908373ffffffffffffffffffffffffffffffffffffffff160217905550610b46806100606000396000f3fe60806040526004361061004a5760003560e01c8063481c6a751461004f5780635d495aea1461007a5780638b5b9ccc14610091578063e97dcb62146100bc578063f71d96cb146100c6575b600080fd5b34801561005b57600080fd5b50610064610103565b60405161007191906105a2565b60405180910390f35b34801561008657600080fd5b5061008f610127565b005b34801561009d57600080fd5b506100a6610307565b6040516100b3919061067b565b60405180910390f35b6100c4610395565b005b3480156100d257600080fd5b506100ed60048036038101906100e891906106d8565b610445565b6040516100fa91906105a2565b60405180910390f35b60008054906101000a900473ffffffffffffffffffffffffffffffffffffffff1681565b60008054906101000a900473ffffffffffffffffffffffffffffffffffffffff1673ffffffffffffffffffffffffffffffffffffffff163373ffffffffffffffffffffffffffffffffffffffff16146101b5576040517f08c379a00000000000000000000000000000000000000000000000000000000081526004016101ac90610788565b60405180910390fd5b6000600180549050116101fd576040517f08c379a00000000000000000000000000000000000000000000000000000000081526004016101f4906107f4565b60405180910390fd5b600060018054905061020d610484565b6102179190610843565b905060006001828154811061022f5761022e610874565b5b9060005260206000200160009054906101000a900473ffffffffffffffffffffffffffffffffffffffff1690508073ffffffffffffffffffffffffffffffffffffffff166108fc479081150290604051600060405180830381858888f193505050501580156102a2573d6000803e3d6000fd5b50600067ffffffffffffffff8111156102be576102bd6108a3565b5b6040519080825280602002602001820160405280156102ec5781602001602082028036833780820191505090505b50600190805190602001906103029291906104ba565b505050565b6060600180548060200260200160405190810160405280929190818152602001828054801561038b57602002820191906000526020600020905b8160009054906101000a900473ffffffffffffffffffffffffffffffffffffffff1673ffffffffffffffffffffffffffffffffffffffff1681526020019060010190808311610341575b5050505050905090565b670de0b6b3a76400003410156103e0576040517f08c379a00000000000000000000000000000000000000000000000000000000081526004016103d79061091e565b60405180910390fd5b6001339080600181540180825580915050600190039060005260206000200160009091909190916101000a81548173ffffffffffffffffffffffffffffffffffffffff021916908373ffffffffffffffffffffffffffffffffffffffff160217905550565b6001818154811061045557600080fd5b906000526020600020016000915054906101000a900473ffffffffffffffffffffffffffffffffffffffff1681565b60004260014160405160200161049c93929190610ad7565b6040516020818303038152906040528051906020012060001c905090565b828054828255906000526020600020908101928215610533579160200282015b828111156105325782518260006101000a81548173ffffffffffffffffffffffffffffffffffffffff021916908373ffffffffffffffffffffffffffffffffffffffff160217905550916020019190600101906104da565b5b5090506105409190610544565b5090565b5b8082111561055d576000816000905550600101610545565b5090565b600073ffffffffffffffffffffffffffffffffffffffff82169050919050565b600061058c82610561565b9050919050565b61059c81610581565b82525050565b60006020820190506105b76000830184610593565b92915050565b600081519050919050565b600082825260208201905092915050565b6000819050602082019050919050565b6105f281610581565b82525050565b600061060483836105e9565b60208301905092915050565b6000602082019050919050565b6000610628826105bd565b61063281856105c8565b935061063d836105d9565b8060005b8381101561066e57815161065588826105f8565b975061066083610610565b925050600181019050610641565b5085935050505092915050565b60006020820190508181036000830152610695818461061d565b905092915050565b600080fd5b6000819050919050565b6106b5816106a2565b81146106c057600080fd5b50565b6000813590506106d2816106ac565b92915050565b6000602082840312156106ee576106ed61069d565b5b60006106fc848285016106c3565b91505092915050565b600082825260208201905092915050565b7f4f6e6c79206d616e616765722063616e2063616c6c20746869732066756e637460008201527f696f6e0000000000000000000000000000000000000000000000000000000000602082015250565b6000610772602383610705565b915061077d82610716565b604082019050919050565b600060208201905081810360008301526107a181610765565b9050919050565b7f4e6f20706c617965727320696e20746865206c6f747465727900000000000000600082015250565b60006107de601983610705565b91506107e9826107a8565b602082019050919050565b6000602082019050818103600083015261080d816107d1565b9050919050565b7f4e487b7100000000000000000000000000000000000000000000000000000000600052601260045260246000fd5b600061084e826106a2565b9150610859836106a2565b92508261086957610868610814565b5b828206905092915050565b7f4e487b7100000000000000000000000000000000000000000000000000000000600052603260045260246000fd5b7f4e487b7100000000000000000000000000000000000000000000000000000000600052604160045260246000fd5b7f4d696e696d756d20657468657220726571756972656420697320310000000000600082015250565b6000610908601b83610705565b9150610913826108d2565b602082019050919050565b60006020820190508181036000830152610937816108fb565b9050919050565b6000819050919050565b610959610954826106a2565b61093e565b82525050565b600081549050919050565b600081905092915050565b60008190508160005260206000209050919050565b61099381610581565b82525050565b60006109a5838361098a565b60208301905092915050565b60008160001c9050919050565b600073ffffffffffffffffffffffffffffffffffffffff82169050919050565b60006109f16109ec836109b1565b6109be565b9050919050565b6000610a0482546109de565b9050919050565b6000600182019050919050565b6000610a238261095f565b610a2d818561096a565b9350610a3883610975565b8060005b83811015610a7057610a4d826109f8565b610a578882610999565b9750610a6283610a0b565b925050600181019050610a3c565b5085935050505092915050565b6000610a8882610561565b9050919050565b60008160601b9050919050565b6000610aa782610a8f565b9050919050565b6000610ab982610a9c565b9050919050565b610ad1610acc82610a7d565b610aae565b82525050565b6000610ae38286610948565b602082019150610af38285610a18565b9150610aff8284610ac0565b60148201915081905094935050505056fea26469706673582212207c1293d5ad00e98673ff594d16b67ebd0d3f40a54086aa35c696ef7b6d17162064736f6c63430008130033",
  "immutableReferences": {},
  "source": "// SPDX-License-Identifier: GPL-3.0\npragma solidity ^0.8.13;\n\n// Define the start of the Lottery contract\ncontract Lottery {\n    // Declares a state variable manager of type address, which will store the Ethereum address of the manager of the lottery\n    address public manager;\n    // Declare a dynamic array players of type address[], which will store the addresses of participants in the lottery\n    address[] public players;\n\n    // This marks the start of the constructor function for the Lottery contract\n    constructor() {\n        // Assign the msg.sender (the address of the contract creator) to the manager variable\n        manager = msg.sender;\n    }\n\n    // This a public function, meaning anyone can call it, and it is marked as payable to allow it to receive Ether along with the function call\n    function enter() public payable {\n        // Uses a require statement to check if the amount of Ether sent with the function call is at least 1 Ether.\n        // If not, it will revert the transaction with the specified error message\n        require(msg.value >= 1 ether, \"Minimum ether required is 1\");\n        // Add the address of the sender (the participant) to the players array\n        players.push(msg.sender);\n    }\n\n    // Define a private function random\n    // It's marked as view, which means it doesn't modify the contract state, and it returns a random number as a uint\n    function random() private view returns (uint) {\n        // Generate a pseudo-random number based on:\n        // timestamp - the Unix timestamp that indicates when the block was created, for example if timestamp is Tue, 07 Nov 2023 19:59:21 GMT , then the block.timestamp for that block might be 1699387161000 in Unix (link convert: https://www.epochconverter.com/)\n        // players: It represents the number of participants (elements in array)  and it's currently 10, the value of players is 10.\n        // coinbase (address payable) - This represents the address of the miner who mined the current block,  example 0x61f4069Dd5d16036971Bb67cA87533E15AF2bbd2 - https://docs.soliditylang.org/en/v0.8.19/units-and-global-variables.html#block-and-transaction-properties\n        return\n            uint(\n                keccak256(\n                    abi.encodePacked(block.timestamp, players, block.coinbase)\n                )\n            );\n    }\n\n    // This function is used to select a random winner from the list of players\n    // Then transfer the contract balance to the winner\n    function pickWinner() public restricted {\n        // Ensure that there are players in the lottery before proceeding\n        require(players.length > 0, \"No players in the lottery\");\n        // Generate a random index within the range of the number of players\n        // random(): This is a function that presumably generates a random number\n        // players.length: This represents the number of players currently participating in the lottery. It gives the total count of elements in the players array.\n        // The modulo operator (%) calculates the remainder, this ensures that the result (index) will be within the range of valid indices for the players array.\n        // This is because the remainder of any number divided by players.length will always be less than players.length.\n        uint index = random() % players.length;\n        // Identify the winner based on the randomly selected index\n        address winner = players[index];\n        // Transfer the entire balance of the contract to the winner\n        payable(winner).transfer(address(this).balance);\n        // Reset the list of players to an empty array for the next round of the lottery\n        players = new address[](0);\n    }\n\n    // This modifier restricts the access to pickWinner function, allowing only the manager to call them\n    modifier restricted() {\n        // Ensure that only the manager (contract deployer) can call the function\n        require(msg.sender == manager, \"Only manager can call this function\");\n        // Continue with the execution of the function\n        _;\n    }\n\n    // This function allows anyone to view the list of players in the lottery.\n    function getPlayers() public view returns (address[] memory) {\n        // Return the array of players\n        return players;\n    }\n}\n",
  "sourcePath": "/Users/namnh/Projects/SaskPolytech/CCMP-603/Assignment/lottery-back-end/contracts/Lottery.sol",
  "compiler": {
    "name": "solc",
    "version": "0.8.19+commit.7dd6d404.Emscripten.clang"
  },
  "schemaVersion": "3.4.16",
  "updatedAt": "2023-11-28T15:57:11.421Z",
  "networkType": "ethereum",
  "devdoc": {
    "kind": "dev",
    "methods": {},
    "version": 1
  },
  "userdoc": {
    "kind": "user",
    "methods": {},
    "version": 1
  }
}